{
  "transactions": [
    {
      "hash": "0x881de096c897bc909ac52f51ab1886356c827568a03b99d79d94ceb1e09b9459",
      "transactionType": "CALL",
      "contractName": null,
      "contractAddress": "0x7b1b8d986ef49c6ba2aeaab23b5d4cecddad9cde",
      "function": "mintNFT(string)",
      "arguments": [
        "ipfs://bafybeie2myvgwdripriwklis6wn3m2ct33in2wofhzxnq72tzoflj5eiim.ipfs.dweb.link?filename=Test.json"
      ],
      "transaction": {
        "from": "0xd16429e3f253f50cff306b2be8966ce935332116",
        "to": "0x7b1b8d986ef49c6ba2aeaab23b5d4cecddad9cde",
        "gas": "0x3ccfd",
        "value": "0x0",
        "input": "0xfb37e88300000000000000000000000000000000000000000000000000000000000000200000000000000000000000000000000000000000000000000000000000000064697066733a2f2f6261667962656965326d79766777647269707269776b6c697336776e336d3263743333696e32776f66687a786e713732747a6f666c6a356569696d2e697066732e647765622e6c696e6b3f66696c656e616d653d546573742e6a736f6e00000000000000000000000000000000000000000000000000000000",
        "nonce": "0x49",
        "chainId": "0xaa36a7"
      },
      "additionalContracts": [],
      "isFixedGasLimit": false
    }
  ],
  "receipts": [
    {
      "status": "0x1",
      "cumulativeGasUsed": "0x14fa55b",
      "logs": [
        {
          "address": "0x7b1b8d986ef49c6ba2aeaab23b5d4cecddad9cde",
          "topics": [
            "0xddf252ad1be2c89b69c2b068fc378daa952ba7f163c4a11628f55a4df523b3ef",
            "0x0000000000000000000000000000000000000000000000000000000000000000",
            "0x000000000000000000000000d16429e3f253f50cff306b2be8966ce935332116",
            "0x0000000000000000000000000000000000000000000000000000000000000005"
          ],
          "data": "0x",
          "blockHash": "0xd8af2f93fed11abf4834a61911fadc11cb911c91b39734d27d22fb384d6224d5",
          "blockNumber": "0x6f0e04",
          "transactionHash": "0x881de096c897bc909ac52f51ab1886356c827568a03b99d79d94ceb1e09b9459",
          "transactionIndex": "0x42",
          "logIndex": "0x1c1",
          "removed": false
        }
      ],
      "logsBloom": "0x00000000000000000000000000000000000000000000000000000000000000000000000000000000000000400000000000000000000000000000000000000000000010000000000000000008000000000000000000000000000000000000000000000000020000000000000000000800000000000000000000000010000000000000000000000000000000000400001000000800000000000000000000000000000000000000000000000400000000000000000000000002000000000000000000000002000000000000000000000000000000000000000000000000000020000000000000000000000010000000100000000000000000000000000000000000",
      "type": "0x2",
      "transactionHash": "0x881de096c897bc909ac52f51ab1886356c827568a03b99d79d94ceb1e09b9459",
      "transactionIndex": "0x42",
      "blockHash": "0xd8af2f93fed11abf4834a61911fadc11cb911c91b39734d27d22fb384d6224d5",
      "blockNumber": "0x6f0e04",
      "gasUsed": "0x2994b",
      "effectiveGasPrice": "0x37048ad6c",
      "from": "0xd16429e3f253f50cff306b2be8966ce935332116",
      "to": "0x7b1b8d986ef49c6ba2aeaab23b5d4cecddad9cde",
      "contractAddress": null
    }
  ],
  "libraries": [],
  "pending": [],
  "returns": {},
  "timestamp": 1734190518,
  "chain": 11155111,
  "commit": "4824013"
}