{
  "transactions": [
    {
      "hash": "0x00a600b7c2cbcaad1d87768b5ac7bde0d3698e7f257e31d48b775af40aa00244",
      "transactionType": "CALL",
      "contractName": null,
      "contractAddress": "0x7b1b8d986ef49c6ba2aeaab23b5d4cecddad9cde",
      "function": "mintNFT(string)",
      "arguments": [
        "https://ipfs.io/ipfs/QmNf1UsmdGaMbpatQ6toXSkzDpizaGmC9zfunCyoz1enD5/penguin/6343.pngjaij"
      ],
      "transaction": {
        "from": "0xd16429e3f253f50cff306b2be8966ce935332116",
        "to": "0x7b1b8d986ef49c6ba2aeaab23b5d4cecddad9cde",
        "gas": "0x31dbb",
        "value": "0x0",
        "input": "0xfb37e8830000000000000000000000000000000000000000000000000000000000000020000000000000000000000000000000000000000000000000000000000000005868747470733a2f2f697066732e696f2f697066732f516d4e663155736d6447614d627061745136746f58536b7a4470697a61476d43397a66756e43796f7a31656e44352f70656e6775696e2f363334332e706e676a61696a0000000000000000",
        "nonce": "0x47",
        "chainId": "0xaa36a7"
      },
      "additionalContracts": [],
      "isFixedGasLimit": false
    }
  ],
  "receipts": [
    {
      "status": "0x1",
      "cumulativeGasUsed": "0x8f4eb7",
      "logs": [
        {
          "address": "0x7b1b8d986ef49c6ba2aeaab23b5d4cecddad9cde",
          "topics": [
            "0xddf252ad1be2c89b69c2b068fc378daa952ba7f163c4a11628f55a4df523b3ef",
            "0x0000000000000000000000000000000000000000000000000000000000000000",
            "0x000000000000000000000000d16429e3f253f50cff306b2be8966ce935332116",
            "0x0000000000000000000000000000000000000000000000000000000000000003"
          ],
          "data": "0x",
          "blockHash": "0xd43a4dcc8562ec8b1f9f60131fc7b72d1278b43c0e9dad7c27a01aaccf6d5472",
          "blockNumber": "0x6f0d6e",
          "transactionHash": "0x00a600b7c2cbcaad1d87768b5ac7bde0d3698e7f257e31d48b775af40aa00244",
          "transactionIndex": "0x5c",
          "logIndex": "0xd8",
          "removed": false
        }
      ],
      "logsBloom": "0x00000000000000000000000000000000000000000000000000000000000000000000000000000000000000400000000000000000020000000000000000000000000000000000000000000008000000000000000000000000000000000000000000000000020000000000000000000800000000000000000000000010000000000000000000000000000000000400000000000000000000000000000000000000000000000000000000000400000000000000000000800002000000000000400000000002000000000000000000000000000000000000000000000000000020000000000000000000000010000000100000000000000000000000000000000000",
      "type": "0x2",
      "transactionHash": "0x00a600b7c2cbcaad1d87768b5ac7bde0d3698e7f257e31d48b775af40aa00244",
      "transactionIndex": "0x5c",
      "blockHash": "0xd43a4dcc8562ec8b1f9f60131fc7b72d1278b43c0e9dad7c27a01aaccf6d5472",
      "blockNumber": "0x6f0d6e",
      "gasUsed": "0x2418c",
      "effectiveGasPrice": "0x29fddc7da",
      "from": "0xd16429e3f253f50cff306b2be8966ce935332116",
      "to": "0x7b1b8d986ef49c6ba2aeaab23b5d4cecddad9cde",
      "contractAddress": null
    }
  ],
  "libraries": [],
  "pending": [],
  "returns": {},
  "timestamp": 1734188608,
  "chain": 11155111,
  "commit": "4824013"
}