{
  "transactions": [
    {
      "hash": null,
      "transactionType": "CALL",
      "contractName": null,
      "contractAddress": "0x7b1b8d986ef49c6ba2aeaab23b5d4cecddad9cde",
      "function": "mintNFT(string)",
      "arguments": [
        "https://ipfs.io/ipfs/QmSpFGNbkPu1a8c2y7bBKtDJbL3NzpnhJnCxuMCgGFDecU"
      ],
      "transaction": {
        "from": "0xd16429e3f253f50cff306b2be8966ce935332116",
        "to": "0x7b1b8d986ef49c6ba2aeaab23b5d4cecddad9cde",
        "gas": "0x31c60",
        "value": "0x0",
        "input": "0xfb37e8830000000000000000000000000000000000000000000000000000000000000020000000000000000000000000000000000000000000000000000000000000004368747470733a2f2f697066732e696f2f697066732f516d537046474e626b50753161386332793762424b74444a624c334e7a706e684a6e4378754d43674746446563550000000000000000000000000000000000000000000000000000000000",
        "nonce": "0x46",
        "chainId": "0xaa36a7"
      },
      "additionalContracts": [],
      "isFixedGasLimit": false
    }
  ],
  "receipts": [],
  "libraries": [],
  "pending": [],
  "returns": {},
  "timestamp": 1734188479,
  "chain": 11155111,
  "commit": "4824013"
}