{
  "transactions": [
    {
      "hash": "0x4120ef7dcbb8276e2cc66ccacdb8a5f7986c1836f812f32a2b35391062cbee07",
      "transactionType": "CALL",
      "contractName": null,
      "contractAddress": "0x7b1b8d986ef49c6ba2aeaab23b5d4cecddad9cde",
      "function": "mintNFT(string)",
      "arguments": [
        "https://ipfs.io/ipfs/QmSpFGNbkPu1a8c2y7bBKtDJbL3NzpnhJnCxuMCgGFDecU"
      ],
      "transaction": {
        "from": "0xd16429e3f253f50cff306b2be8966ce935332116",
        "to": "0x7b1b8d986ef49c6ba2aeaab23b5d4cecddad9cde",
        "gas": "0x31c60",
        "value": "0x0",
        "input": "0xfb37e8830000000000000000000000000000000000000000000000000000000000000020000000000000000000000000000000000000000000000000000000000000004368747470733a2f2f697066732e696f2f697066732f516d537046474e626b50753161386332793762424b74444a624c334e7a706e684a6e4378754d43674746446563550000000000000000000000000000000000000000000000000000000000",
        "nonce": "0x45",
        "chainId": "0xaa36a7"
      },
      "additionalContracts": [],
      "isFixedGasLimit": false
    }
  ],
  "receipts": [
    {
      "status": "0x1",
      "cumulativeGasUsed": "0xa25d26",
      "logs": [
        {
          "address": "0x7b1b8d986ef49c6ba2aeaab23b5d4cecddad9cde",
          "topics": [
            "0xddf252ad1be2c89b69c2b068fc378daa952ba7f163c4a11628f55a4df523b3ef",
            "0x0000000000000000000000000000000000000000000000000000000000000000",
            "0x000000000000000000000000d16429e3f253f50cff306b2be8966ce935332116",
            "0x0000000000000000000000000000000000000000000000000000000000000001"
          ],
          "data": "0x",
          "blockHash": "0xe8b41c90a8236109fbb4f8fac5a1ff82789c1e2ca75b3581648ecf3b4236edcb",
          "blockNumber": "0x6f0cde",
          "transactionHash": "0x4120ef7dcbb8276e2cc66ccacdb8a5f7986c1836f812f32a2b35391062cbee07",
          "transactionIndex": "0x75",
          "logIndex": "0xdf",
          "removed": false
        }
      ],
      "logsBloom": "0x00000000000000000000000000000000000000000000000000000000000000000000000000000000000000400000000000000000000000000000000000040000000000000000000000000008000000000000000000040000000000000000000000000000020000000000000000000800000000000000000000000010000000000000000000000000000000000400000000000000000000000000000000000000000000000000000000000400000000000000000000000002000000000000000000000002000000000000000000000000000000000000000000000000000060000000000000000000000010000000100000000000000000000000000000000000",
      "type": "0x2",
      "transactionHash": "0x4120ef7dcbb8276e2cc66ccacdb8a5f7986c1836f812f32a2b35391062cbee07",
      "transactionIndex": "0x75",
      "blockHash": "0xe8b41c90a8236109fbb4f8fac5a1ff82789c1e2ca75b3581648ecf3b4236edcb",
      "blockNumber": "0x6f0cde",
      "gasUsed": "0x24090",
      "effectiveGasPrice": "0x1de539f5c",
      "from": "0xd16429e3f253f50cff306b2be8966ce935332116",
      "to": "0x7b1b8d986ef49c6ba2aeaab23b5d4cecddad9cde",
      "contractAddress": null
    }
  ],
  "libraries": [],
  "pending": [],
  "returns": {},
  "timestamp": 1734186761,
  "chain": 11155111,
  "commit": "4824013"
}