{
  "transactions": [
    {
      "hash": "0xd0aec1e3e715cf03bfb50f3dbb8f94e1ad522f2a9394403e7db3b0a22ef28b3b",
      "transactionType": "CALL",
      "contractName": null,
      "contractAddress": "0x7b1b8d986ef49c6ba2aeaab23b5d4cecddad9cde",
      "function": "mintNFT(string)",
      "arguments": [
        "https://ipfs.io/ipfs/QmNf1UsmdGaMbpatQ6toXSkzDpizaGmC9zfunCyoz1enD5/penguin/6343.pngjaij"
      ],
      "transaction": {
        "from": "0xd16429e3f253f50cff306b2be8966ce935332116",
        "to": "0x7b1b8d986ef49c6ba2aeaab23b5d4cecddad9cde",
        "gas": "0x31dbb",
        "value": "0x0",
        "input": "0xfb37e8830000000000000000000000000000000000000000000000000000000000000020000000000000000000000000000000000000000000000000000000000000005868747470733a2f2f697066732e696f2f697066732f516d4e663155736d6447614d627061745136746f58536b7a4470697a61476d43397a66756e43796f7a31656e44352f70656e6775696e2f363334332e706e676a61696a0000000000000000",
        "nonce": "0x46",
        "chainId": "0xaa36a7"
      },
      "additionalContracts": [],
      "isFixedGasLimit": false
    }
  ],
  "receipts": [
    {
      "status": "0x1",
      "cumulativeGasUsed": "0xf1ea44",
      "logs": [
        {
          "address": "0x7b1b8d986ef49c6ba2aeaab23b5d4cecddad9cde",
          "topics": [
            "0xddf252ad1be2c89b69c2b068fc378daa952ba7f163c4a11628f55a4df523b3ef",
            "0x0000000000000000000000000000000000000000000000000000000000000000",
            "0x000000000000000000000000d16429e3f253f50cff306b2be8966ce935332116",
            "0x0000000000000000000000000000000000000000000000000000000000000002"
          ],
          "data": "0x",
          "blockHash": "0xc02cd25e3ccc2e7634b55d7edd697a58e05ca55b1ad2f18f75a729692b723358",
          "blockNumber": "0x6f0d67",
          "transactionHash": "0xd0aec1e3e715cf03bfb50f3dbb8f94e1ad522f2a9394403e7db3b0a22ef28b3b",
          "transactionIndex": "0x70",
          "logIndex": "0x16a",
          "removed": false
        }
      ],
      "logsBloom": "0x04000000000000000000000000000000000000000000000000000000000000000000000000000000000000400000000000000000000000000000000000000000000000000000000000000008000000000000000000000000000000000000000000000000020000000000000000000800000000000000000000000010000000000000000000000000000000000400000000000000000000000000000000000000000000000000000000000500000000000000000000000002000000000000000000000002000000000000000000000000000000000000000000000000000020000000000000000000000010000000100000000000008000000000000000000000",
      "type": "0x2",
      "transactionHash": "0xd0aec1e3e715cf03bfb50f3dbb8f94e1ad522f2a9394403e7db3b0a22ef28b3b",
      "transactionIndex": "0x70",
      "blockHash": "0xc02cd25e3ccc2e7634b55d7edd697a58e05ca55b1ad2f18f75a729692b723358",
      "blockNumber": "0x6f0d67",
      "gasUsed": "0x2418c",
      "effectiveGasPrice": "0x2f2858a48",
      "from": "0xd16429e3f253f50cff306b2be8966ce935332116",
      "to": "0x7b1b8d986ef49c6ba2aeaab23b5d4cecddad9cde",
      "contractAddress": null
    }
  ],
  "libraries": [],
  "pending": [],
  "returns": {},
  "timestamp": 1734188524,
  "chain": 11155111,
  "commit": "4824013"
}