{
  "transactions": [
    {
      "hash": "0x9ffdcf09e6d13a9e29a02251ceb7a671fa8efc86ede38fc258e116314ea5eb02",
      "transactionType": "CALL",
      "contractName": null,
      "contractAddress": "0x7b1b8d986ef49c6ba2aeaab23b5d4cecddad9cde",
      "function": "mintNFT(string)",
      "arguments": [
        "ipfs://QmSpFGNbkPu1a8c2y7bBKtDJbL3NzpnhJnCxuMCgGFDecU"
      ],
      "transaction": {
        "from": "0xd16429e3f253f50cff306b2be8966ce935332116",
        "to": "0x7b1b8d986ef49c6ba2aeaab23b5d4cecddad9cde",
        "gas": "0x38e23",
        "value": "0x0",
        "input": "0xfb37e88300000000000000000000000000000000000000000000000000000000000000200000000000000000000000000000000000000000000000000000000000000035697066733a2f2f516d537046474e626b50753161386332793762424b74444a624c334e7a706e684a6e4378754d43674746446563550000000000000000000000",
        "nonce": "0x44",
        "chainId": "0xaa36a7"
      },
      "additionalContracts": [],
      "isFixedGasLimit": false
    }
  ],
  "receipts": [
    {
      "status": "0x1",
      "cumulativeGasUsed": "0x127f53b",
      "logs": [
        {
          "address": "0x7b1b8d986ef49c6ba2aeaab23b5d4cecddad9cde",
          "topics": [
            "0xddf252ad1be2c89b69c2b068fc378daa952ba7f163c4a11628f55a4df523b3ef",
            "0x0000000000000000000000000000000000000000000000000000000000000000",
            "0x000000000000000000000000d16429e3f253f50cff306b2be8966ce935332116",
            "0x0000000000000000000000000000000000000000000000000000000000000000"
          ],
          "data": "0x",
          "blockHash": "0x5a4d9223cc8e581f02c65cfe3275411891a0455fe16e9cf7814d627e93f92f17",
          "blockNumber": "0x6f0ca1",
          "transactionHash": "0x9ffdcf09e6d13a9e29a02251ceb7a671fa8efc86ede38fc258e116314ea5eb02",
          "transactionIndex": "0x61",
          "logIndex": "0x13f",
          "removed": false
        }
      ],
      "logsBloom": "0x00000000000000000000000000000000000000000000000000000000000000000000000000000000000000400000000000000000000000000000000000000000000000000000000000000008000000000000000000000000000000000000000000000000020000000000000000000800000000000000000000000010000000000000000000000000000000000400000000000000000000000000000000000000000000000000000000000400000000000000000000000002000000000000000000000002000000000000000000000000000000000000000000000000000020000000000000000000000010000000100000000000000000000000000000000000",
      "type": "0x2",
      "transactionHash": "0x9ffdcf09e6d13a9e29a02251ceb7a671fa8efc86ede38fc258e116314ea5eb02",
      "transactionIndex": "0x61",
      "blockHash": "0x5a4d9223cc8e581f02c65cfe3275411891a0455fe16e9cf7814d627e93f92f17",
      "blockNumber": "0x6f0ca1",
      "gasUsed": "0x26e51",
      "effectiveGasPrice": "0x205aab5aa",
      "from": "0xd16429e3f253f50cff306b2be8966ce935332116",
      "to": "0x7b1b8d986ef49c6ba2aeaab23b5d4cecddad9cde",
      "contractAddress": null
    }
  ],
  "libraries": [],
  "pending": [],
  "returns": {},
  "timestamp": 1734185992,
  "chain": 11155111,
  "commit": "4824013"
}