{
  "transactions": [
    {
      "hash": "0x86e39e221707ab5ee5d445c81301bbdc9ddef88d35463cc8842797e5e4acbc5d",
      "transactionType": "CALL",
      "contractName": null,
      "contractAddress": "0x7b1b8d986ef49c6ba2aeaab23b5d4cecddad9cde",
      "function": "mintNFT(string)",
      "arguments": [
        "ipfs://bafybeiccqcakiqhbxtrb4umlxksaolstuqkrnra3u3tt2svfrzhms25ktu.ipfs.dweb.link?filename=Girl.png"
      ],
      "transaction": {
        "from": "0xd16429e3f253f50cff306b2be8966ce935332116",
        "to": "0x7b1b8d986ef49c6ba2aeaab23b5d4cecddad9cde",
        "gas": "0x396dd",
        "value": "0x0",
        "input": "0xfb37e88300000000000000000000000000000000000000000000000000000000000000200000000000000000000000000000000000000000000000000000000000000063697066733a2f2f6261667962656963637163616b697168627874726234756d6c786b73616f6c737475716b726e7261337533747432737666727a686d7332356b74752e697066732e647765622e6c696e6b3f66696c656e616d653d4769726c2e706e670000000000000000000000000000000000000000000000000000000000",
        "nonce": "0x4a",
        "chainId": "0xaa36a7"
      },
      "additionalContracts": [],
      "isFixedGasLimit": false
    }
  ],
  "receipts": [
    {
      "status": "0x1",
      "cumulativeGasUsed": "0xc699e9",
      "logs": [
        {
          "address": "0x7b1b8d986ef49c6ba2aeaab23b5d4cecddad9cde",
          "topics": [
            "0xddf252ad1be2c89b69c2b068fc378daa952ba7f163c4a11628f55a4df523b3ef",
            "0x0000000000000000000000000000000000000000000000000000000000000000",
            "0x000000000000000000000000d16429e3f253f50cff306b2be8966ce935332116",
            "0x0000000000000000000000000000000000000000000000000000000000000006"
          ],
          "data": "0x",
          "blockHash": "0x5195af78501bb5b1e44eddb0484449f494f3a28c0f70fa6deddea6901d2116a6",
          "blockNumber": "0x6f0e12",
          "transactionHash": "0x86e39e221707ab5ee5d445c81301bbdc9ddef88d35463cc8842797e5e4acbc5d",
          "transactionIndex": "0x5e",
          "logIndex": "0x11b",
          "removed": false
        }
      ],
      "logsBloom": "0x00000000000000000000000000000000000000000000000000000000000000000000000000000000000000400000000000000000000400000000000000000000000000000000000000000008000000000000000000000000000000000000000000000000020000000000000000000800000000000000000000000010000000000000000400000000000000000400000000000000000000000000000000000000000000000000000000000400000000000000000000000002000000080000000000000002000000000000000000000000000000000000000000000000000020000000000000000000000010000000100000000000000000000000000000000000",
      "type": "0x2",
      "transactionHash": "0x86e39e221707ab5ee5d445c81301bbdc9ddef88d35463cc8842797e5e4acbc5d",
      "transactionIndex": "0x5e",
      "blockHash": "0x5195af78501bb5b1e44eddb0484449f494f3a28c0f70fa6deddea6901d2116a6",
      "blockNumber": "0x6f0e12",
      "gasUsed": "0x2993f",
      "effectiveGasPrice": "0x35e114909",
      "from": "0xd16429e3f253f50cff306b2be8966ce935332116",
      "to": "0x7b1b8d986ef49c6ba2aeaab23b5d4cecddad9cde",
      "contractAddress": null
    }
  ],
  "libraries": [],
  "pending": [],
  "returns": {},
  "timestamp": 1734190684,
  "chain": 11155111,
  "commit": "4824013"
}