{
  "transactions": [
    {
      "hash": "0xe33a77589a47f2ff2fce7bbd0a5be76b63956b387cf9bbf7a4818a4f807b040d",
      "transactionType": "CALL",
      "contractName": null,
      "contractAddress": "0x7b1b8d986ef49c6ba2aeaab23b5d4cecddad9cde",
      "function": "mintNFT(string)",
      "arguments": [
        "ipfs://bafybeig37ioir76s7mg5oobetncojcm3c3hxasyd4rvid4jqhy4gkaheg4/?filename=0-PUG.json"
      ],
      "transaction": {
        "from": "0xd16429e3f253f50cff306b2be8966ce935332116",
        "to": "0x7b1b8d986ef49c6ba2aeaab23b5d4cecddad9cde",
        "gas": "0x31dac",
        "value": "0x0",
        "input": "0xfb37e88300000000000000000000000000000000000000000000000000000000000000200000000000000000000000000000000000000000000000000000000000000057697066733a2f2f62616679626569673337696f6972373673376d67356f6f6265746e636f6a636d3363336878617379643472766964346a71687934676b61686567342f3f66696c656e616d653d302d5055472e6a736f6e000000000000000000",
        "nonce": "0x4b",
        "chainId": "0xaa36a7"
      },
      "additionalContracts": [],
      "isFixedGasLimit": false
    }
  ],
  "receipts": [
    {
      "status": "0x1",
      "cumulativeGasUsed": "0x95a836",
      "logs": [
        {
          "address": "0x7b1b8d986ef49c6ba2aeaab23b5d4cecddad9cde",
          "topics": [
            "0xddf252ad1be2c89b69c2b068fc378daa952ba7f163c4a11628f55a4df523b3ef",
            "0x0000000000000000000000000000000000000000000000000000000000000000",
            "0x000000000000000000000000d16429e3f253f50cff306b2be8966ce935332116",
            "0x0000000000000000000000000000000000000000000000000000000000000007"
          ],
          "data": "0x",
          "blockHash": "0x532c1471912c60f9aab053ecbb7a0a28f4a5355d07501dfcf80c4ae581853501",
          "blockNumber": "0x6f0e35",
          "transactionHash": "0xe33a77589a47f2ff2fce7bbd0a5be76b63956b387cf9bbf7a4818a4f807b040d",
          "transactionIndex": "0x50",
          "logIndex": "0xcc",
          "removed": false
        }
      ],
      "logsBloom": "0x00000000000000000000000000000000000000000000000000000000000000000000000000000000000000400000000000001000000000000000000000000000000020000000000000000008000000000000000000000000000000000000000000000000020000000000000000000800000000000000000000000010000000000000000000000000000000000400000000000000000000000000000000000000000000000000000000000400000000000000000000000002000000000000000000000002000000000000000000000000000000000000000000000100000020000000000000000000000010000000100000000000000000000000000000000000",
      "type": "0x2",
      "transactionHash": "0xe33a77589a47f2ff2fce7bbd0a5be76b63956b387cf9bbf7a4818a4f807b040d",
      "transactionIndex": "0x50",
      "blockHash": "0x532c1471912c60f9aab053ecbb7a0a28f4a5355d07501dfcf80c4ae581853501",
      "blockNumber": "0x6f0e35",
      "gasUsed": "0x24180",
      "effectiveGasPrice": "0x34c52ac5e",
      "from": "0xd16429e3f253f50cff306b2be8966ce935332116",
      "to": "0x7b1b8d986ef49c6ba2aeaab23b5d4cecddad9cde",
      "contractAddress": null
    }
  ],
  "libraries": [],
  "pending": [],
  "returns": {},
  "timestamp": 1734191130,
  "chain": 11155111,
  "commit": "4824013"
}