{
  "transactions": [
    {
      "hash": "0x1cb477f7ac8080e228d39c41928af29043cb1d20bc1d8065ab985471bfc8bbbe",
      "transactionType": "CALL",
      "contractName": null,
      "contractAddress": "0xd0ac40f282fae2981cacdc611e28a05dfbee404b",
      "function": "mintNFT(string)",
      "arguments": [
        "ipfs://bafkreid4qxg2uyfipnwep4oibpyqktaxl5gc5gpjtka2ihtfitr7o7optu"
      ],
      "transaction": {
        "from": "0xd16429e3f253f50cff306b2be8966ce935332116",
        "to": "0xd0ac40f282fae2981cacdc611e28a05dfbee404b",
        "gas": "0x31c4f",
        "value": "0x0",
        "input": "0xfb37e88300000000000000000000000000000000000000000000000000000000000000200000000000000000000000000000000000000000000000000000000000000042697066733a2f2f6261666b72656964347178673275796669706e776570346f69627079716b7461786c3567633567706a746b613269687466697472376f376f707475000000000000000000000000000000000000000000000000000000000000",
        "nonce": "0x54",
        "chainId": "0xaa36a7"
      },
      "additionalContracts": [],
      "isFixedGasLimit": false
    }
  ],
  "receipts": [
    {
      "status": "0x1",
      "cumulativeGasUsed": "0x148c16c",
      "logs": [
        {
          "address": "0xd0ac40f282fae2981cacdc611e28a05dfbee404b",
          "topics": [
            "0xddf252ad1be2c89b69c2b068fc378daa952ba7f163c4a11628f55a4df523b3ef",
            "0x0000000000000000000000000000000000000000000000000000000000000000",
            "0x000000000000000000000000d16429e3f253f50cff306b2be8966ce935332116",
            "0x0000000000000000000000000000000000000000000000000000000000000006"
          ],
          "data": "0x",
          "blockHash": "0x68999bbf44ae49a6b1228f418c5f685528e8816c633c3bd5b89cc2c355080091",
          "blockNumber": "0x6f1972",
          "transactionHash": "0x1cb477f7ac8080e228d39c41928af29043cb1d20bc1d8065ab985471bfc8bbbe",
          "transactionIndex": "0x6a",
          "logIndex": "0xbb",
          "removed": false
        }
      ],
      "logsBloom": "0x00000000000000000000000000000000000000000000000000000000000000000000000000000000000000408000000000000000000400000000000000000000000000000000000000000008000000000000000000000000000000000000000000000000020000000000000000000800000000000000000000000010000000000000000400000000000000000000000000000000000000000000000000000000800000000000000000001000000000000000000000000002000000080000000000000002000000000000000000000000000000000000000000000000000020000000000000000000000000000000100000000000000000000000000000000000",
      "type": "0x2",
      "transactionHash": "0x1cb477f7ac8080e228d39c41928af29043cb1d20bc1d8065ab985471bfc8bbbe",
      "transactionIndex": "0x6a",
      "blockHash": "0x68999bbf44ae49a6b1228f418c5f685528e8816c633c3bd5b89cc2c355080091",
      "blockNumber": "0x6f1972",
      "gasUsed": "0x24084",
      "effectiveGasPrice": "0xe4f9dd",
      "from": "0xd16429e3f253f50cff306b2be8966ce935332116",
      "to": "0xd0ac40f282fae2981cacdc611e28a05dfbee404b",
      "contractAddress": null
    }
  ],
  "libraries": [],
  "pending": [],
  "returns": {},
  "timestamp": 1734227825,
  "chain": 11155111,
  "commit": "4824013"
}