{
  "transactions": [
    {
      "hash": "0x805f9805e0392af9f0e66eacc0874abe480b960c74d0a03bb73ced43eeee8070",
      "transactionType": "CALL",
      "contractName": null,
      "contractAddress": "0xd0ac40f282fae2981cacdc611e28a05dfbee404b",
      "function": "mintNFT(string)",
      "arguments": [
        "ipfs.io/ipfs/bbafkreifv5x6kmdrpc2q4g77xkkwbfe2tnc5tqnea6j65etqzl2wxtj5osi"
      ],
      "transaction": {
        "from": "0xd16429e3f253f50cff306b2be8966ce935332116",
        "to": "0xd0ac40f282fae2981cacdc611e28a05dfbee404b",
        "gas": "0x31cc3",
        "value": "0x0",
        "input": "0xfb37e88300000000000000000000000000000000000000000000000000000000000000200000000000000000000000000000000000000000000000000000000000000049697066732e696f2f697066732f626261666b72656966763578366b6d64727063327134673737786b6b7762666532746e633574716e6561366a36356574717a6c327778746a356f73690000000000000000000000000000000000000000000000",
        "nonce": "0x50",
        "chainId": "0xaa36a7"
      },
      "additionalContracts": [],
      "isFixedGasLimit": false
    }
  ],
  "receipts": [
    {
      "status": "0x1",
      "cumulativeGasUsed": "0x864613",
      "logs": [
        {
          "address": "0xd0ac40f282fae2981cacdc611e28a05dfbee404b",
          "topics": [
            "0xddf252ad1be2c89b69c2b068fc378daa952ba7f163c4a11628f55a4df523b3ef",
            "0x0000000000000000000000000000000000000000000000000000000000000000",
            "0x000000000000000000000000d16429e3f253f50cff306b2be8966ce935332116",
            "0x0000000000000000000000000000000000000000000000000000000000000002"
          ],
          "data": "0x",
          "blockHash": "0x0ce38c56a146c0bac02d5c715878b4443e5b89cc6ecdfedddca72e540649e348",
          "blockNumber": "0x6f18e3",
          "transactionHash": "0x805f9805e0392af9f0e66eacc0874abe480b960c74d0a03bb73ced43eeee8070",
          "transactionIndex": "0x59",
          "logIndex": "0x9f",
          "removed": false
        }
      ],
      "logsBloom": "0x04000000000000000000000000000000000000000000000000000000000000000000000000000000000000408000000000000000000000000000000000000000000000000000000000000008000000000000000000000000000000000000000000000000020000000000000000000800000000000000000000000010000000000000000000000000000000000000000000000000000000000000000000000000800000000000000000001100000000000000000000000002000000000000000000000002000000000000000000000000000000000000000000000000000020000000000000000000000000000000100000000000008000000000000000000000",
      "type": "0x2",
      "transactionHash": "0x805f9805e0392af9f0e66eacc0874abe480b960c74d0a03bb73ced43eeee8070",
      "transactionIndex": "0x59",
      "blockHash": "0x0ce38c56a146c0bac02d5c715878b4443e5b89cc6ecdfedddca72e540649e348",
      "blockNumber": "0x6f18e3",
      "gasUsed": "0x240d8",
      "effectiveGasPrice": "0xe759ba",
      "from": "0xd16429e3f253f50cff306b2be8966ce935332116",
      "to": "0xd0ac40f282fae2981cacdc611e28a05dfbee404b",
      "contractAddress": null
    }
  ],
  "libraries": [],
  "pending": [],
  "returns": {},
  "timestamp": 1734226011,
  "chain": 11155111,
  "commit": "4824013"
}