{
  "transactions": [
    {
      "hash": "0x0acaee67ba06da65083dd34951478e905c6121d3fcaefe44cba9556a07f13837",
      "transactionType": "CALL",
      "contractName": null,
      "contractAddress": "0xd0ac40f282fae2981cacdc611e28a05dfbee404b",
      "function": "mintNFT(string)",
      "arguments": [
        "ipfs://bafkreid4qxg2uyfipnwep4oibpyqktaxl5gc5gpjtka2ihtfitr7o7optu"
      ],
      "transaction": {
        "from": "0xd16429e3f253f50cff306b2be8966ce935332116",
        "to": "0xd0ac40f282fae2981cacdc611e28a05dfbee404b",
        "gas": "0x31c4f",
        "value": "0x0",
        "input": "0xfb37e88300000000000000000000000000000000000000000000000000000000000000200000000000000000000000000000000000000000000000000000000000000042697066733a2f2f6261666b72656964347178673275796669706e776570346f69627079716b7461786c3567633567706a746b613269687466697472376f376f707475000000000000000000000000000000000000000000000000000000000000",
        "nonce": "0x53",
        "chainId": "0xaa36a7"
      },
      "additionalContracts": [],
      "isFixedGasLimit": false
    }
  ],
  "receipts": [
    {
      "status": "0x1",
      "cumulativeGasUsed": "0x10eaca5",
      "logs": [
        {
          "address": "0xd0ac40f282fae2981cacdc611e28a05dfbee404b",
          "topics": [
            "0xddf252ad1be2c89b69c2b068fc378daa952ba7f163c4a11628f55a4df523b3ef",
            "0x0000000000000000000000000000000000000000000000000000000000000000",
            "0x000000000000000000000000d16429e3f253f50cff306b2be8966ce935332116",
            "0x0000000000000000000000000000000000000000000000000000000000000005"
          ],
          "data": "0x",
          "blockHash": "0xd32d089cae4176635b259f4cc26ce58544a28d0880d30df18bac15b51c54c535",
          "blockNumber": "0x6f1949",
          "transactionHash": "0x0acaee67ba06da65083dd34951478e905c6121d3fcaefe44cba9556a07f13837",
          "transactionIndex": "0x76",
          "logIndex": "0x1a6",
          "removed": false
        }
      ],
      "logsBloom": "0x00000000000000000000000000000000000000000000000000000000000000000000000000000000000000408000000000000000000000000000000000000000000010000000000000000008000000000000000000000000000000000000000000000000020000000000000000000800000000000000000000000010000000000000000000000000000000000000001000000800000000000000000000000000800000000000000000001000000000000000000000000002000000000000000000000002000000000000000000000000000000000000000000000000000020000000000000000000000000000000100000000000000000000000000000000000",
      "type": "0x2",
      "transactionHash": "0x0acaee67ba06da65083dd34951478e905c6121d3fcaefe44cba9556a07f13837",
      "transactionIndex": "0x76",
      "blockHash": "0xd32d089cae4176635b259f4cc26ce58544a28d0880d30df18bac15b51c54c535",
      "blockNumber": "0x6f1949",
      "gasUsed": "0x24084",
      "effectiveGasPrice": "0xe86cc1",
      "from": "0xd16429e3f253f50cff306b2be8966ce935332116",
      "to": "0xd0ac40f282fae2981cacdc611e28a05dfbee404b",
      "contractAddress": null
    }
  ],
  "libraries": [],
  "pending": [],
  "returns": {},
  "timestamp": 1734227289,
  "chain": 11155111,
  "commit": "4824013"
}