{
  "transactions": [
    {
      "hash": "0x2f2a105a07a5b79675b6d8389322dda51c6c2456ca608d37fe304903bad1064d",
      "transactionType": "CALL",
      "contractName": null,
      "contractAddress": "0xd0ac40f282fae2981cacdc611e28a05dfbee404b",
      "function": "mintNFT(string)",
      "arguments": [
        "ipfs.io/ipfs/Qbafkreid4qxg2uyfipnwep4oibpyqktaxl5gc5gpjtka2ihtfitr7o7optu"
      ],
      "transaction": {
        "from": "0xd16429e3f253f50cff306b2be8966ce935332116",
        "to": "0xd0ac40f282fae2981cacdc611e28a05dfbee404b",
        "gas": "0x3d54a",
        "value": "0x0",
        "input": "0xfb37e88300000000000000000000000000000000000000000000000000000000000000200000000000000000000000000000000000000000000000000000000000000049697066732e696f2f697066732f516261666b72656964347178673275796669706e776570346f69627079716b7461786c3567633567706a746b613269687466697472376f376f7074750000000000000000000000000000000000000000000000",
        "nonce": "0x4e",
        "chainId": "0xaa36a7"
      },
      "additionalContracts": [],
      "isFixedGasLimit": false
    }
  ],
  "receipts": [
    {
      "status": "0x1",
      "cumulativeGasUsed": "0xc1f5d8",
      "logs": [
        {
          "address": "0xd0ac40f282fae2981cacdc611e28a05dfbee404b",
          "topics": [
            "0xddf252ad1be2c89b69c2b068fc378daa952ba7f163c4a11628f55a4df523b3ef",
            "0x0000000000000000000000000000000000000000000000000000000000000000",
            "0x000000000000000000000000d16429e3f253f50cff306b2be8966ce935332116",
            "0x0000000000000000000000000000000000000000000000000000000000000000"
          ],
          "data": "0x",
          "blockHash": "0x14b01101978125756d0c9535fdb4a6171aaaed5b5e5cbe7dbf0738874e289b26",
          "blockNumber": "0x6f14bf",
          "transactionHash": "0x2f2a105a07a5b79675b6d8389322dda51c6c2456ca608d37fe304903bad1064d",
          "transactionIndex": "0x51",
          "logIndex": "0x143",
          "removed": false
        }
      ],
      "logsBloom": "0x00000000000000000000000000000000000000000000000000000000000000000000000000000000000000408000000000000000000000000000000000000000000000000000000000000008000000000000000000000000000000000000000000000000020000000000000000000800000000000000000000000010000000000000000000000000000000000000000000000000000000000000000000000000800000000000000000001000000000000000000000000002000000000000000000000002000000000000000000000000000000000000000000000000000020000000000000000000000000000000100000000000000000000000000000000000",
      "type": "0x2",
      "transactionHash": "0x2f2a105a07a5b79675b6d8389322dda51c6c2456ca608d37fe304903bad1064d",
      "transactionIndex": "0x51",
      "blockHash": "0x14b01101978125756d0c9535fdb4a6171aaaed5b5e5cbe7dbf0738874e289b26",
      "blockNumber": "0x6f14bf",
      "gasUsed": "0x2c670",
      "effectiveGasPrice": "0x959918b0",
      "from": "0xd16429e3f253f50cff306b2be8966ce935332116",
      "to": "0xd0ac40f282fae2981cacdc611e28a05dfbee404b",
      "contractAddress": null
    }
  ],
  "libraries": [],
  "pending": [],
  "returns": {},
  "timestamp": 1734212415,
  "chain": 11155111,
  "commit": "4824013"
}