{
  "transactions": [
    {
      "hash": "0xd58944ff8a8aa864c9954b6243fcb0e19c895772a750ee8f9ffdd462a504481a",
      "transactionType": "CALL",
      "contractName": null,
      "contractAddress": "0xd0ac40f282fae2981cacdc611e28a05dfbee404b",
      "function": "mintNFT(string)",
      "arguments": [
        "https://ipfs.io/ipfs/bafkreid4qxg2uyfipnwep4oibpyqktaxl5gc5gpjtka2ihtfitr7o7optu"
      ],
      "transaction": {
        "from": "0xd16429e3f253f50cff306b2be8966ce935332116",
        "to": "0xd0ac40f282fae2981cacdc611e28a05dfbee404b",
        "gas": "0x31d37",
        "value": "0x0",
        "input": "0xfb37e8830000000000000000000000000000000000000000000000000000000000000020000000000000000000000000000000000000000000000000000000000000005068747470733a2f2f697066732e696f2f697066732f6261666b72656964347178673275796669706e776570346f69627079716b7461786c3567633567706a746b613269687466697472376f376f70747500000000000000000000000000000000",
        "nonce": "0x52",
        "chainId": "0xaa36a7"
      },
      "additionalContracts": [],
      "isFixedGasLimit": false
    }
  ],
  "receipts": [
    {
      "status": "0x1",
      "cumulativeGasUsed": "0xbc6ea9",
      "logs": [
        {
          "address": "0xd0ac40f282fae2981cacdc611e28a05dfbee404b",
          "topics": [
            "0xddf252ad1be2c89b69c2b068fc378daa952ba7f163c4a11628f55a4df523b3ef",
            "0x0000000000000000000000000000000000000000000000000000000000000000",
            "0x000000000000000000000000d16429e3f253f50cff306b2be8966ce935332116",
            "0x0000000000000000000000000000000000000000000000000000000000000004"
          ],
          "data": "0x",
          "blockHash": "0x857ca6d1b5a44afa0d4fa6c008e4bda63555d61050b56f19a3dc6785d4854736",
          "blockNumber": "0x6f1900",
          "transactionHash": "0xd58944ff8a8aa864c9954b6243fcb0e19c895772a750ee8f9ffdd462a504481a",
          "transactionIndex": "0x45",
          "logIndex": "0x164",
          "removed": false
        }
      ],
      "logsBloom": "0x00000000000000000000000000000000000000000000000000000000000000000000000000000000000000408000000000000000000000000000000000000000000000000000000000000008000000000000000000000000000000000000000008000000020000000000000000000800000000000000000000000010000000000000000000000000000000000000000000000000000000000000000000000000800000000000000000001000000000000000000000000002002000000000000000000002000000000000000000000000000000008000000000000000000020000000000000000000000000000000100000000000000000000000000000000000",
      "type": "0x2",
      "transactionHash": "0xd58944ff8a8aa864c9954b6243fcb0e19c895772a750ee8f9ffdd462a504481a",
      "transactionIndex": "0x45",
      "blockHash": "0x857ca6d1b5a44afa0d4fa6c008e4bda63555d61050b56f19a3dc6785d4854736",
      "blockNumber": "0x6f1900",
      "gasUsed": "0x2412c",
      "effectiveGasPrice": "0xe702c9",
      "from": "0xd16429e3f253f50cff306b2be8966ce935332116",
      "to": "0xd0ac40f282fae2981cacdc611e28a05dfbee404b",
      "contractAddress": null
    }
  ],
  "libraries": [],
  "pending": [],
  "returns": {},
  "timestamp": 1734226362,
  "chain": 11155111,
  "commit": "4824013"
}