{
  "transactions": [
    {
      "hash": "0xb43b94644f96a8089b55b0dc213893cdf546ff5c12a927848e36d1791d03cc58",
      "transactionType": "CALL",
      "contractName": null,
      "contractAddress": "0x0d15cf1f9bcae2079437b2a92715c3615b03e895",
      "function": "mintNFT(string)",
      "arguments": [
        "ipfs://bafkreictv3p474nfilkyufpkeh2kqvll5kwxwobtupxpvesxpsufjc2xym"
      ],
      "transaction": {
        "from": "0xd16429e3f253f50cff306b2be8966ce935332116",
        "to": "0x0d15cf1f9bcae2079437b2a92715c3615b03e895",
        "gas": "0x3d4d5",
        "value": "0x0",
        "input": "0xfb37e88300000000000000000000000000000000000000000000000000000000000000200000000000000000000000000000000000000000000000000000000000000042697066733a2f2f6261666b72656963747633703437346e66696c6b797566706b6568326b71766c6c356b7778776f62747570787076657378707375666a633278796d000000000000000000000000000000000000000000000000000000000000",
        "nonce": "0x59",
        "chainId": "0xaa36a7"
      },
      "additionalContracts": [],
      "isFixedGasLimit": false
    }
  ],
  "receipts": [
    {
      "status": "0x1",
      "cumulativeGasUsed": "0xfbf2dd",
      "logs": [
        {
          "address": "0x0d15cf1f9bcae2079437b2a92715c3615b03e895",
          "topics": [
            "0xddf252ad1be2c89b69c2b068fc378daa952ba7f163c4a11628f55a4df523b3ef",
            "0x0000000000000000000000000000000000000000000000000000000000000000",
            "0x000000000000000000000000d16429e3f253f50cff306b2be8966ce935332116",
            "0x0000000000000000000000000000000000000000000000000000000000000000"
          ],
          "data": "0x",
          "blockHash": "0x7feec63e551af3615e2c18f2a2077cdf950c3a29bb1e95d8c3a8c15b0b33591d",
          "blockNumber": "0x6f1a33",
          "transactionHash": "0xb43b94644f96a8089b55b0dc213893cdf546ff5c12a927848e36d1791d03cc58",
          "transactionIndex": "0x66",
          "logIndex": "0xcf",
          "removed": false
        }
      ],
      "logsBloom": "0x00000200000000000000000000000000000000000000000000000000000000000000000000000000000000400000000000000000000000000000000000000000000000000000000000000008000000000000000000000000000000000000000000000000020000000000000000000800000000000000000000000010000200000000000000000000000000000000000000000000000000000000000000000000000000000000000000000000000000000000000000000002200000000000000000000002000000000000000000000000000000000000000000000000000020000000000000000000000000000000100000000000000000000000000000000000",
      "type": "0x2",
      "transactionHash": "0xb43b94644f96a8089b55b0dc213893cdf546ff5c12a927848e36d1791d03cc58",
      "transactionIndex": "0x66",
      "blockHash": "0x7feec63e551af3615e2c18f2a2077cdf950c3a29bb1e95d8c3a8c15b0b33591d",
      "blockNumber": "0x6f1a33",
      "gasUsed": "0x2c61c",
      "effectiveGasPrice": "0x1b4dbbb",
      "from": "0xd16429e3f253f50cff306b2be8966ce935332116",
      "to": "0x0d15cf1f9bcae2079437b2a92715c3615b03e895",
      "contractAddress": null
    }
  ],
  "libraries": [],
  "pending": [],
  "returns": {},
  "timestamp": 1734230261,
  "chain": 11155111,
  "commit": "4824013"
}