{
  "transactions": [
    {
      "hash": "0x4dd0f74f7df43b849c2c3842dd2d6f4d6a3f518907f8da58c013d9a59faa7db5",
      "transactionType": "CALL",
      "contractName": null,
      "contractAddress": "0xd0ac40f282fae2981cacdc611e28a05dfbee404b",
      "function": "mintNFT(string)",
      "arguments": [
        "https://ipfs.io/ipfs/bbafkreifv5x6kmdrpc2q4g77xkkwbfe2tnc5tqnea6j65etqzl2wxtj5osi"
      ],
      "transaction": {
        "from": "0xd16429e3f253f50cff306b2be8966ce935332116",
        "to": "0xd0ac40f282fae2981cacdc611e28a05dfbee404b",
        "gas": "0x31d47",
        "value": "0x0",
        "input": "0xfb37e8830000000000000000000000000000000000000000000000000000000000000020000000000000000000000000000000000000000000000000000000000000005168747470733a2f2f697066732e696f2f697066732f626261666b72656966763578366b6d64727063327134673737786b6b7762666532746e633574716e6561366a36356574717a6c327778746a356f7369000000000000000000000000000000",
        "nonce": "0x51",
        "chainId": "0xaa36a7"
      },
      "additionalContracts": [],
      "isFixedGasLimit": false
    }
  ],
  "receipts": [
    {
      "status": "0x1",
      "cumulativeGasUsed": "0x13c67f8",
      "logs": [
        {
          "address": "0xd0ac40f282fae2981cacdc611e28a05dfbee404b",
          "topics": [
            "0xddf252ad1be2c89b69c2b068fc378daa952ba7f163c4a11628f55a4df523b3ef",
            "0x0000000000000000000000000000000000000000000000000000000000000000",
            "0x000000000000000000000000d16429e3f253f50cff306b2be8966ce935332116",
            "0x0000000000000000000000000000000000000000000000000000000000000003"
          ],
          "data": "0x",
          "blockHash": "0x03a6e4a7ba3c5c2ddd49729d03b48db829d835407bb6597f0b629dcf5d2f7920",
          "blockNumber": "0x6f18f9",
          "transactionHash": "0x4dd0f74f7df43b849c2c3842dd2d6f4d6a3f518907f8da58c013d9a59faa7db5",
          "transactionIndex": "0x8b",
          "logIndex": "0x18d",
          "removed": false
        }
      ],
      "logsBloom": "0x00000000000000000000000000000000000000000000000000000000000000000000000000000000000000408000000000000000020000000000000000000000000000000000000000000008000000000000000000000000000000000000000000000000020000000000000000000800000000000000000000000010000000000000000000000000000000000000000000000000000000000000000000000000800000000000000000001000000000000000000000800002000000000000400000000002000000000000000000000000000000000000000000000000000020000000000000000000000000000000100000000000000000000000000000000000",
      "type": "0x2",
      "transactionHash": "0x4dd0f74f7df43b849c2c3842dd2d6f4d6a3f518907f8da58c013d9a59faa7db5",
      "transactionIndex": "0x8b",
      "blockHash": "0x03a6e4a7ba3c5c2ddd49729d03b48db829d835407bb6597f0b629dcf5d2f7920",
      "blockNumber": "0x6f18f9",
      "gasUsed": "0x24138",
      "effectiveGasPrice": "0xe6d535",
      "from": "0xd16429e3f253f50cff306b2be8966ce935332116",
      "to": "0xd0ac40f282fae2981cacdc611e28a05dfbee404b",
      "contractAddress": null
    }
  ],
  "libraries": [],
  "pending": [],
  "returns": {},
  "timestamp": 1734226279,
  "chain": 11155111,
  "commit": "4824013"
}