{
  "transactions": [
    {
      "hash": "0x78676371ff1705a0d42e49647816c62ba6d432bc0412c6aeee4346f6311060ac",
      "transactionType": "CALL",
      "contractName": null,
      "contractAddress": "0xd0ac40f282fae2981cacdc611e28a05dfbee404b",
      "function": "mintNFT(string)",
      "arguments": [
        "ipfs.io/ipfs/bafkreid4qxg2uyfipnwep4oibpyqktaxl5gc5gpjtka2ihtfitr7o7optu"
      ],
      "transaction": {
        "from": "0xd16429e3f253f50cff306b2be8966ce935332116",
        "to": "0xd0ac40f282fae2981cacdc611e28a05dfbee404b",
        "gas": "0x31cb2",
        "value": "0x0",
        "input": "0xfb37e88300000000000000000000000000000000000000000000000000000000000000200000000000000000000000000000000000000000000000000000000000000048697066732e696f2f697066732f6261666b72656964347178673275796669706e776570346f69627079716b7461786c3567633567706a746b613269687466697472376f376f707475000000000000000000000000000000000000000000000000",
        "nonce": "0x4f",
        "chainId": "0xaa36a7"
      },
      "additionalContracts": [],
      "isFixedGasLimit": false
    }
  ],
  "receipts": [
    {
      "status": "0x1",
      "cumulativeGasUsed": "0x148592f",
      "logs": [
        {
          "address": "0xd0ac40f282fae2981cacdc611e28a05dfbee404b",
          "topics": [
            "0xddf252ad1be2c89b69c2b068fc378daa952ba7f163c4a11628f55a4df523b3ef",
            "0x0000000000000000000000000000000000000000000000000000000000000000",
            "0x000000000000000000000000d16429e3f253f50cff306b2be8966ce935332116",
            "0x0000000000000000000000000000000000000000000000000000000000000001"
          ],
          "data": "0x",
          "blockHash": "0x9955f983942c4d01e15afa4f7600cfa63df57c446928aeee9425c7cb3be43759",
          "blockNumber": "0x6f150e",
          "transactionHash": "0x78676371ff1705a0d42e49647816c62ba6d432bc0412c6aeee4346f6311060ac",
          "transactionIndex": "0xb5",
          "logIndex": "0x117",
          "removed": false
        }
      ],
      "logsBloom": "0x00000000000000000000000000000000000000000000000000000000000000000000000000000000000000408000000000000000000000000000000000040000000000000000000000000008000000000000000000040000000000000000000000000000020000000000000000000800000000000000000000000010000000000000000000000000000000000000000000000000000000000000000000000000800000000000000000001000000000000000000000000002000000000000000000000002000000000000000000000000000000000000000000000000000060000000000000000000000000000000100000000000000000000000000000000000",
      "type": "0x2",
      "transactionHash": "0x78676371ff1705a0d42e49647816c62ba6d432bc0412c6aeee4346f6311060ac",
      "transactionIndex": "0xb5",
      "blockHash": "0x9955f983942c4d01e15afa4f7600cfa63df57c446928aeee9425c7cb3be43759",
      "blockNumber": "0x6f150e",
      "gasUsed": "0x240cc",
      "effectiveGasPrice": "0xa05ec293",
      "from": "0xd16429e3f253f50cff306b2be8966ce935332116",
      "to": "0xd0ac40f282fae2981cacdc611e28a05dfbee404b",
      "contractAddress": null
    }
  ],
  "libraries": [],
  "pending": [],
  "returns": {},
  "timestamp": 1734213449,
  "chain": 11155111,
  "commit": "4824013"
}