{
  "transactions": [
    {
      "hash": "0x2385a50f8e0a5ef8e6e7d6dd21a0b20607691487b92deeca8c5da8f04aac8d4b",
      "transactionType": "CALL",
      "contractName": null,
      "contractAddress": "0xd0ac40f282fae2981cacdc611e28a05dfbee404b",
      "function": "mintNFT(string)",
      "arguments": [
        "ipfs://bafkreictv3p474nfilkyufpkeh2kqvll5kwxwobtupxpvesxpsufjc2xym"
      ],
      "transaction": {
        "from": "0xd16429e3f253f50cff306b2be8966ce935332116",
        "to": "0xd0ac40f282fae2981cacdc611e28a05dfbee404b",
        "gas": "0x31c4f",
        "value": "0x0",
        "input": "0xfb37e88300000000000000000000000000000000000000000000000000000000000000200000000000000000000000000000000000000000000000000000000000000042697066733a2f2f6261666b72656963747633703437346e66696c6b797566706b6568326b71766c6c356b7778776f62747570787076657378707375666a633278796d000000000000000000000000000000000000000000000000000000000000",
        "nonce": "0x55",
        "chainId": "0xaa36a7"
      },
      "additionalContracts": [],
      "isFixedGasLimit": false
    }
  ],
  "receipts": [
    {
      "status": "0x1",
      "cumulativeGasUsed": "0x150a9c0",
      "logs": [
        {
          "address": "0xd0ac40f282fae2981cacdc611e28a05dfbee404b",
          "topics": [
            "0xddf252ad1be2c89b69c2b068fc378daa952ba7f163c4a11628f55a4df523b3ef",
            "0x0000000000000000000000000000000000000000000000000000000000000000",
            "0x000000000000000000000000d16429e3f253f50cff306b2be8966ce935332116",
            "0x0000000000000000000000000000000000000000000000000000000000000007"
          ],
          "data": "0x",
          "blockHash": "0xc5a93814169395f32401900756c8f73d31bd8414f7aafb3d62e68e182ab1a4ef",
          "blockNumber": "0x6f1989",
          "transactionHash": "0x2385a50f8e0a5ef8e6e7d6dd21a0b20607691487b92deeca8c5da8f04aac8d4b",
          "transactionIndex": "0xa8",
          "logIndex": "0x22d",
          "removed": false
        }
      ],
      "logsBloom": "0x00000000000000000000000000000000000000000000000000000000000000000000000000000000000000408000000000001000000000000000000000000000000020000000000000000008000000000000000000000000000000000000000000000000020000000000000000000800000000000000000000000010000000000000000000000000000000000000000000000000000000000000000000000000800000000000000000001000000000000000000000000002000000000000000000000002000000000000000000000000000000000000000000000100000020000000000000000000000000000000100000000000000000000000000000000000",
      "type": "0x2",
      "transactionHash": "0x2385a50f8e0a5ef8e6e7d6dd21a0b20607691487b92deeca8c5da8f04aac8d4b",
      "transactionIndex": "0xa8",
      "blockHash": "0xc5a93814169395f32401900756c8f73d31bd8414f7aafb3d62e68e182ab1a4ef",
      "blockNumber": "0x6f1989",
      "gasUsed": "0x24084",
      "effectiveGasPrice": "0x10b74a5",
      "from": "0xd16429e3f253f50cff306b2be8966ce935332116",
      "to": "0xd0ac40f282fae2981cacdc611e28a05dfbee404b",
      "contractAddress": null
    }
  ],
  "libraries": [],
  "pending": [],
  "returns": {},
  "timestamp": 1734228121,
  "chain": 11155111,
  "commit": "4824013"
}