{
  "transactions": [
    {
      "hash": "0x72a08d4050bb60766cc61d7bbaf7c9c3fe615240424249cef0b5640572f61088",
      "transactionType": "CALL",
      "contractName": null,
      "contractAddress": "0x3fd1c6eaa6aab941035a5b39c42ad76146833a3e",
      "function": "mintNFT(string)",
      "arguments": [
        "ipfs://bafkreictv3p474nfilkyufpkeh2kqvll5kwxwobtupxpvesxpsufjc2xym"
      ],
      "transaction": {
        "from": "0xd16429e3f253f50cff306b2be8966ce935332116",
        "to": "0x3fd1c6eaa6aab941035a5b39c42ad76146833a3e",
        "gas": "0x3d4d5",
        "value": "0x0",
        "input": "0xfb37e88300000000000000000000000000000000000000000000000000000000000000200000000000000000000000000000000000000000000000000000000000000042697066733a2f2f6261666b72656963747633703437346e66696c6b797566706b6568326b71766c6c356b7778776f62747570787076657378707375666a633278796d000000000000000000000000000000000000000000000000000000000000",
        "nonce": "0x57",
        "chainId": "0xaa36a7"
      },
      "additionalContracts": [],
      "isFixedGasLimit": false
    }
  ],
  "receipts": [
    {
      "status": "0x1",
      "cumulativeGasUsed": "0x9140fb",
      "logs": [
        {
          "address": "0x3fd1c6eaa6aab941035a5b39c42ad76146833a3e",
          "topics": [
            "0xddf252ad1be2c89b69c2b068fc378daa952ba7f163c4a11628f55a4df523b3ef",
            "0x0000000000000000000000000000000000000000000000000000000000000000",
            "0x000000000000000000000000d16429e3f253f50cff306b2be8966ce935332116",
            "0x0000000000000000000000000000000000000000000000000000000000000000"
          ],
          "data": "0x",
          "blockHash": "0x6b3f7a0c0309db1a9ae0146ac9a5e5e830fdf275c55e0a05d552cc122226d6ca",
          "blockNumber": "0x6f19bf",
          "transactionHash": "0x72a08d4050bb60766cc61d7bbaf7c9c3fe615240424249cef0b5640572f61088",
          "transactionIndex": "0x4e",
          "logIndex": "0x9a",
          "removed": false
        }
      ],
      "logsBloom": "0x00000000000000000000000000000000000000000000000000000000000000000000000000000000000000400000000000000000000000000000000800000000000000000000000000000008000000000000000000000000000000000000000000000000020000000000000000000800000000010000000000000010000000000000000000000000000000000000000000000000000000000000000000000000000000000000000000008000000000000000000000000002000000000000000000000002000000000000000000000000000000000000000000000000000020000000000000000000000000000000100000000000000000000000000000000000",
      "type": "0x2",
      "transactionHash": "0x72a08d4050bb60766cc61d7bbaf7c9c3fe615240424249cef0b5640572f61088",
      "transactionIndex": "0x4e",
      "blockHash": "0x6b3f7a0c0309db1a9ae0146ac9a5e5e830fdf275c55e0a05d552cc122226d6ca",
      "blockNumber": "0x6f19bf",
      "gasUsed": "0x2c61c",
      "effectiveGasPrice": "0xf2f6fb",
      "from": "0xd16429e3f253f50cff306b2be8966ce935332116",
      "to": "0x3fd1c6eaa6aab941035a5b39c42ad76146833a3e",
      "contractAddress": null
    }
  ],
  "libraries": [],
  "pending": [],
  "returns": {},
  "timestamp": 1734228799,
  "chain": 11155111,
  "commit": "4824013"
}